{
  "_format": "hh-sol-artifact-1",
  "contractName": "GOToken",
  "sourceName": "contracts/GoToken.sol",
  "abi": [
    {
      "inputs": [],
      "stateMutability": "nonpayable",
      "type": "constructor"
    },
    {
      "anonymous": false,
      "inputs": [
        {
          "indexed": true,
          "internalType": "address",
          "name": "owner",
          "type": "address"
        },
        {
          "indexed": true,
          "internalType": "address",
          "name": "spender",
          "type": "address"
        },
        {
          "indexed": false,
          "internalType": "uint256",
          "name": "value",
          "type": "uint256"
        }
      ],
      "name": "Approval",
      "type": "event"
    },
    {
      "anonymous": false,
      "inputs": [
        {
          "indexed": true,
          "internalType": "address",
          "name": "previousOwner",
          "type": "address"
        },
        {
          "indexed": true,
          "internalType": "address",
          "name": "newOwner",
          "type": "address"
        }
      ],
      "name": "OwnershipTransferred",
      "type": "event"
    },
    {
      "anonymous": false,
      "inputs": [
        {
          "indexed": true,
          "internalType": "address",
          "name": "from",
          "type": "address"
        },
        {
          "indexed": true,
          "internalType": "address",
          "name": "to",
          "type": "address"
        },
        {
          "indexed": false,
          "internalType": "uint256",
          "name": "value",
          "type": "uint256"
        }
      ],
      "name": "Transfer",
      "type": "event"
    },
    {
      "inputs": [],
      "name": "ab",
      "outputs": [
        {
          "internalType": "contract AntiBot",
          "name": "",
          "type": "address"
        }
      ],
      "stateMutability": "view",
      "type": "function"
    },
    {
      "inputs": [],
      "name": "abEnabled",
      "outputs": [
        {
          "internalType": "bool",
          "name": "",
          "type": "bool"
        }
      ],
      "stateMutability": "view",
      "type": "function"
    },
    {
      "inputs": [
        {
          "internalType": "address",
          "name": "owner",
          "type": "address"
        },
        {
          "internalType": "address",
          "name": "spender",
          "type": "address"
        }
      ],
      "name": "allowance",
      "outputs": [
        {
          "internalType": "uint256",
          "name": "",
          "type": "uint256"
        }
      ],
      "stateMutability": "view",
      "type": "function"
    },
    {
      "inputs": [
        {
          "internalType": "address",
          "name": "spender",
          "type": "address"
        },
        {
          "internalType": "uint256",
          "name": "amount",
          "type": "uint256"
        }
      ],
      "name": "approve",
      "outputs": [
        {
          "internalType": "bool",
          "name": "",
          "type": "bool"
        }
      ],
      "stateMutability": "nonpayable",
      "type": "function"
    },
    {
      "inputs": [
        {
          "internalType": "address",
          "name": "account",
          "type": "address"
        }
      ],
      "name": "balanceOf",
      "outputs": [
        {
          "internalType": "uint256",
          "name": "",
          "type": "uint256"
        }
      ],
      "stateMutability": "view",
      "type": "function"
    },
    {
      "inputs": [
        {
          "internalType": "uint256",
          "name": "amount",
          "type": "uint256"
        }
      ],
      "name": "burn",
      "outputs": [],
      "stateMutability": "nonpayable",
      "type": "function"
    },
    {
      "inputs": [
        {
          "internalType": "address",
          "name": "account",
          "type": "address"
        },
        {
          "internalType": "uint256",
          "name": "amount",
          "type": "uint256"
        }
      ],
      "name": "burnFrom",
      "outputs": [],
      "stateMutability": "nonpayable",
      "type": "function"
    },
    {
      "inputs": [],
      "name": "decimals",
      "outputs": [
        {
          "internalType": "uint8",
          "name": "",
          "type": "uint8"
        }
      ],
      "stateMutability": "view",
      "type": "function"
    },
    {
      "inputs": [
        {
          "internalType": "address",
          "name": "spender",
          "type": "address"
        },
        {
          "internalType": "uint256",
          "name": "subtractedValue",
          "type": "uint256"
        }
      ],
      "name": "decreaseAllowance",
      "outputs": [
        {
          "internalType": "bool",
          "name": "",
          "type": "bool"
        }
      ],
      "stateMutability": "nonpayable",
      "type": "function"
    },
    {
      "inputs": [
        {
          "internalType": "address",
          "name": "spender",
          "type": "address"
        },
        {
          "internalType": "uint256",
          "name": "addedValue",
          "type": "uint256"
        }
      ],
      "name": "increaseAllowance",
      "outputs": [
        {
          "internalType": "bool",
          "name": "",
          "type": "bool"
        }
      ],
      "stateMutability": "nonpayable",
      "type": "function"
    },
    {
      "inputs": [],
      "name": "name",
      "outputs": [
        {
          "internalType": "string",
          "name": "",
          "type": "string"
        }
      ],
      "stateMutability": "view",
      "type": "function"
    },
    {
      "inputs": [],
      "name": "owner",
      "outputs": [
        {
          "internalType": "address",
          "name": "",
          "type": "address"
        }
      ],
      "stateMutability": "view",
      "type": "function"
    },
    {
      "inputs": [],
      "name": "renounceOwnership",
      "outputs": [],
      "stateMutability": "nonpayable",
      "type": "function"
    },
    {
      "inputs": [
        {
          "internalType": "address",
          "name": "_ab",
          "type": "address"
        },
        {
          "internalType": "bool",
          "name": "_enabeled",
          "type": "bool"
        }
      ],
      "name": "setABAddress",
      "outputs": [],
      "stateMutability": "nonpayable",
      "type": "function"
    },
    {
      "inputs": [
        {
          "internalType": "bool",
          "name": "_enabled",
          "type": "bool"
        }
      ],
      "name": "setABEnabled",
      "outputs": [],
      "stateMutability": "nonpayable",
      "type": "function"
    },
    {
      "inputs": [
        {
          "internalType": "address",
          "name": "_dev",
          "type": "address"
        }
      ],
      "name": "setDevAddress",
      "outputs": [],
      "stateMutability": "nonpayable",
      "type": "function"
    },
    {
      "inputs": [],
      "name": "symbol",
      "outputs": [
        {
          "internalType": "string",
          "name": "",
          "type": "string"
        }
      ],
      "stateMutability": "view",
      "type": "function"
    },
    {
      "inputs": [],
      "name": "totalSupply",
      "outputs": [
        {
          "internalType": "uint256",
          "name": "",
          "type": "uint256"
        }
      ],
      "stateMutability": "view",
      "type": "function"
    },
    {
      "inputs": [
        {
          "internalType": "address",
          "name": "to",
          "type": "address"
        },
        {
          "internalType": "uint256",
          "name": "amount",
          "type": "uint256"
        }
      ],
      "name": "transfer",
      "outputs": [
        {
          "internalType": "bool",
          "name": "",
          "type": "bool"
        }
      ],
      "stateMutability": "nonpayable",
      "type": "function"
    },
    {
      "inputs": [
        {
          "internalType": "address",
          "name": "from",
          "type": "address"
        },
        {
          "internalType": "address",
          "name": "to",
          "type": "address"
        },
        {
          "internalType": "uint256",
          "name": "amount",
          "type": "uint256"
        }
      ],
      "name": "transferFrom",
      "outputs": [
        {
          "internalType": "bool",
          "name": "",
          "type": "bool"
        }
      ],
      "stateMutability": "nonpayable",
      "type": "function"
    },
    {
      "inputs": [
        {
          "internalType": "address",
          "name": "newOwner",
          "type": "address"
        }
      ],
      "name": "transferOwnership",
      "outputs": [],
      "stateMutability": "nonpayable",
      "type": "function"
    }
  ],
  "bytecode": "0x60806040523480156200001157600080fd5b50604080518082018252600881526723a7902a37b5b2b760c11b602080830191825283518085019094526002845261474f60f01b9084015281519192916200005c91600391620001fd565b50805162000072906004906020840190620001fd565b5050506200008f62000089620000bf60201b60201c565b620000c3565b620000a7336b033b2e3c9fd0803ce800000062000115565b600780546001600160a01b0319163317905562000305565b3390565b600580546001600160a01b038381166001600160a01b0319831681179093556040519116919082907f8be0079c531659141344cd1fd0a4f28419497f9722a3daafe3b4186f6b6457e090600090a35050565b6001600160a01b038216620001705760405162461bcd60e51b815260206004820152601f60248201527f45524332303a206d696e7420746f20746865207a65726f206164647265737300604482015260640160405180910390fd5b8060026000828254620001849190620002a3565b90915550506001600160a01b03821660009081526020819052604081208054839290620001b3908490620002a3565b90915550506040518181526001600160a01b038316906000907fddf252ad1be2c89b69c2b068fc378daa952ba7f163c4a11628f55a4df523b3ef9060200160405180910390a35050565b8280546200020b90620002c8565b90600052602060002090601f0160209004810192826200022f57600085556200027a565b82601f106200024a57805160ff19168380011785556200027a565b828001600101855582156200027a579182015b828111156200027a5782518255916020019190600101906200025d565b50620002889291506200028c565b5090565b5b808211156200028857600081556001016200028d565b60008219821115620002c357634e487b7160e01b81526011600452602481fd5b500190565b600181811c90821680620002dd57607f821691505b60208210811415620002ff57634e487b7160e01b600052602260045260246000fd5b50919050565b6110ce80620003156000396000f3fe608060405234801561001057600080fd5b50600436106101775760003560e01c8063715018a6116100d857806395d89b411161008c578063d0d41fe111610066578063d0d41fe1146102eb578063dd62ed3e146102fe578063f2fde38b1461033757610177565b806395d89b41146102bd578063a457c2d7146102c5578063a9059cbb146102d857610177565b80637568f8c7116100bd5780637568f8c71461028657806379cc6790146102995780638da5cb5b146102ac57610177565b8063715018a61461026a57806373e2423f1461027257610177565b8063313ce5671161012f57806342966c681161011457806342966c681461022f57806346d86ca51461024457806370a082311461025757610177565b8063313ce5671461020d578063395093511461021c57610177565b806318160ddd1161016057806318160ddd146101bd5780631fe5d6e3146101cf57806323b872dd146101fa57610177565b806306fdde031461017c578063095ea7b31461019a575b600080fd5b61018461034a565b6040516101919190610fc5565b60405180910390f35b6101ad6101a8366004610f52565b6103dc565b6040519015158152602001610191565b6002545b604051908152602001610191565b6006546101e2906001600160a01b031681565b6040516001600160a01b039091168152602001610191565b6101ad610208366004610eee565b6103f4565b60405160128152602001610191565b6101ad61022a366004610f52565b610418565b61024261023d366004610f95565b610457565b005b610242610252366004610f29565b610464565b6101c1610265366004610e9b565b6104b1565b6102426104d0565b6006546101ad90600160a01b900460ff1681565b610242610294366004610f7b565b6104e4565b6102426102a7366004610f52565b61058d565b6005546001600160a01b03166101e2565b6101846105a6565b6101ad6102d3366004610f52565b6105b5565b6101ad6102e6366004610f52565b61065f565b6102426102f9366004610e9b565b61066d565b6101c161030c366004610ebc565b6001600160a01b03918216600090815260016020908152604080832093909416825291909152205490565b610242610345366004610e9b565b6106a4565b60606003805461035990611047565b80601f016020809104026020016040519081016040528092919081815260200182805461038590611047565b80156103d25780601f106103a7576101008083540402835291602001916103d2565b820191906000526020600020905b8154815290600101906020018083116103b557829003601f168201915b5050505050905090565b6000336103ea818585610731565b5060019392505050565b600033610402858285610889565b61040d85858561091b565b506001949350505050565b3360008181526001602090815260408083206001600160a01b03871684529091528120549091906103ea9082908690610452908790611018565b610731565b6104613382610a1f565b50565b61046c610ba4565b60068054911515600160a01b027fffffffffffffffffffffff0000000000000000000000000000000000000000009092166001600160a01b0390931692909217179055565b6001600160a01b0381166000908152602081905260409020545b919050565b6104d8610ba4565b6104e26000610bfe565b565b6104ec610ba4565b60018115151415610554576006546001600160a01b03166105545760405162461bcd60e51b815260206004820152601260248201527f416e746920626f74206e6f7420666f756e64000000000000000000000000000060448201526064015b60405180910390fd5b60068054911515600160a01b027fffffffffffffffffffffff00ffffffffffffffffffffffffffffffffffffffff909216919091179055565b610598823383610889565b6105a28282610a1f565b5050565b60606004805461035990611047565b3360008181526001602090815260408083206001600160a01b0387168452909152812054909190838110156106525760405162461bcd60e51b815260206004820152602560248201527f45524332303a2064656372656173656420616c6c6f77616e63652062656c6f7760448201527f207a65726f000000000000000000000000000000000000000000000000000000606482015260840161054b565b61040d8286868403610731565b6000336103ea81858561091b565b610675610ba4565b6007805473ffffffffffffffffffffffffffffffffffffffff19166001600160a01b0392909216919091179055565b6106ac610ba4565b6001600160a01b0381166107285760405162461bcd60e51b815260206004820152602660248201527f4f776e61626c653a206e6577206f776e657220697320746865207a65726f206160448201527f6464726573730000000000000000000000000000000000000000000000000000606482015260840161054b565b61046181610bfe565b6001600160a01b0383166107ac5760405162461bcd60e51b8152602060048201526024808201527f45524332303a20617070726f76652066726f6d20746865207a65726f2061646460448201527f7265737300000000000000000000000000000000000000000000000000000000606482015260840161054b565b6001600160a01b0382166108285760405162461bcd60e51b815260206004820152602260248201527f45524332303a20617070726f766520746f20746865207a65726f20616464726560448201527f7373000000000000000000000000000000000000000000000000000000000000606482015260840161054b565b6001600160a01b0383811660008181526001602090815260408083209487168084529482529182902085905590518481527f8c5be1e5ebec7d5bd14f71427d1e84f3dd0314c0f7b2291e5b200ac8c7c3b925910160405180910390a3505050565b6001600160a01b03838116600090815260016020908152604080832093861683529290522054600019811461091557818110156109085760405162461bcd60e51b815260206004820152601d60248201527f45524332303a20696e73756666696369656e7420616c6c6f77616e6365000000604482015260640161054b565b6109158484848403610731565b50505050565b600654600160a01b900460ff1615610a0f576006546040517f7e2f3afd0000000000000000000000000000000000000000000000000000000081526001600160a01b0385811660048301528481166024830152604482018490526000921690637e2f3afd90606401602060405180830381600087803b15801561099d57600080fd5b505af11580156109b1573d6000803e3d6000fd5b505050506040513d601f19601f820116820180604052508101906109d59190610fad565b905080156109f5576007546109f59085906001600160a01b031683610c5d565b610a098484610a048486611030565b610c5d565b50610a1a565b610a1a838383610c5d565b505050565b6001600160a01b038216610a9b5760405162461bcd60e51b815260206004820152602160248201527f45524332303a206275726e2066726f6d20746865207a65726f2061646472657360448201527f7300000000000000000000000000000000000000000000000000000000000000606482015260840161054b565b6001600160a01b03821660009081526020819052604090205481811015610b2a5760405162461bcd60e51b815260206004820152602260248201527f45524332303a206275726e20616d6f756e7420657863656564732062616c616e60448201527f6365000000000000000000000000000000000000000000000000000000000000606482015260840161054b565b6001600160a01b0383166000908152602081905260408120838303905560028054849290610b59908490611030565b90915550506040518281526000906001600160a01b038516907fddf252ad1be2c89b69c2b068fc378daa952ba7f163c4a11628f55a4df523b3ef9060200160405180910390a3610a1a565b6005546001600160a01b031633146104e25760405162461bcd60e51b815260206004820181905260248201527f4f776e61626c653a2063616c6c6572206973206e6f7420746865206f776e6572604482015260640161054b565b600580546001600160a01b0383811673ffffffffffffffffffffffffffffffffffffffff19831681179093556040519116919082907f8be0079c531659141344cd1fd0a4f28419497f9722a3daafe3b4186f6b6457e090600090a35050565b6001600160a01b038316610cd95760405162461bcd60e51b815260206004820152602560248201527f45524332303a207472616e736665722066726f6d20746865207a65726f20616460448201527f6472657373000000000000000000000000000000000000000000000000000000606482015260840161054b565b6001600160a01b038216610d555760405162461bcd60e51b815260206004820152602360248201527f45524332303a207472616e7366657220746f20746865207a65726f206164647260448201527f6573730000000000000000000000000000000000000000000000000000000000606482015260840161054b565b6001600160a01b03831660009081526020819052604090205481811015610de45760405162461bcd60e51b815260206004820152602660248201527f45524332303a207472616e7366657220616d6f756e742065786365656473206260448201527f616c616e63650000000000000000000000000000000000000000000000000000606482015260840161054b565b6001600160a01b03808516600090815260208190526040808220858503905591851681529081208054849290610e1b908490611018565b92505081905550826001600160a01b0316846001600160a01b03167fddf252ad1be2c89b69c2b068fc378daa952ba7f163c4a11628f55a4df523b3ef84604051610e6791815260200190565b60405180910390a3610915565b80356001600160a01b03811681146104cb57600080fd5b803580151581146104cb57600080fd5b600060208284031215610eac578081fd5b610eb582610e74565b9392505050565b60008060408385031215610ece578081fd5b610ed783610e74565b9150610ee560208401610e74565b90509250929050565b600080600060608486031215610f02578081fd5b610f0b84610e74565b9250610f1960208501610e74565b9150604084013590509250925092565b60008060408385031215610f3b578182fd5b610f4483610e74565b9150610ee560208401610e8b565b60008060408385031215610f64578182fd5b610f6d83610e74565b946020939093013593505050565b600060208284031215610f8c578081fd5b610eb582610e8b565b600060208284031215610fa6578081fd5b5035919050565b600060208284031215610fbe578081fd5b5051919050565b6000602080835283518082850152825b81811015610ff157858101830151858201604001528201610fd5565b818111156110025783604083870101525b50601f01601f1916929092016040019392505050565b6000821982111561102b5761102b611082565b500190565b60008282101561104257611042611082565b500390565b600181811c9082168061105b57607f821691505b6020821081141561107c57634e487b7160e01b600052602260045260246000fd5b50919050565b634e487b7160e01b600052601160045260246000fdfea2646970667358221220b2b179122eef8f61722de46bc019483600f8786c850b5039a25fbda291dbc11464736f6c63430008030033",
  "linkReferences": {},
  "deployedLinkReferences": {}
}